:10049B0050617373576F72643A004F4B2100455292
:0204AB005200FD
:10018C001204877BFF7A04799B7D017F011203FFA8
:10019C001200038F1CE51C60F7D3940A5041C3E591
:1001AC00199404E51894005020AE1AAF1B7C007D06
:1001BC000A1202848E1A8F1BE51C75F00A84E5F076
:1001CC00251BF51BE4351AF51A0519E519700205FE
:1001DC0018750C04AB1BAA1A7D017F02120440E5B2
:1001EC001C640B7036E51BB42F0DE51AB411087B9B
:1001FC00FF7A0479A580067BFF7A0479A97D0E7FAE
:10020C00011203FFE4F51AF51BF518F519750C042A
:10021C00AB1BAA1A7D017F02120440E51C640C6022
:10022C000302019CAE1AAF1BFC7D0A1202EB8E1A64
:10023C008F1BE519151970021518750C04AB1BAA48
:0B024C001A7D017F0212044002019C99
:10047300EF4E600F7D027CC7DCFEDDFCEF1F70F0EA
:030483001E80EDEB
:010486002253
:0604AD00C2A58F80D2A75A
:0804B3007F027EC7DEFEDFFCC4
:0104BB00221E
:0A04C800C2A61204ADC2A70204B3DD
:10042200CFCDCFCECCCE1202967C007D0A120296A0
:04043200ED2430FF86
:0A043600D2A61204ADC2A70204B35F
:10045D00AE07BE0104ED148006BE0209ED243F4433
:06046D0080FF1204C8220A
:100487007F381204C87F0C1204C87F061204C87F85
:04049700010204C892
:0A04D200AC0312045DAF040204360F
:0603FF008B088A09890A3F
:1004050012045DE4FDAB08AA09A90A8D8275830073
:0C041500120257FF60061204360D80E949
:0104210022B8
:0C03CC007F0AEA24FFFDE434FFFC7E0001
:0803D8008E0D8F0E8C0F8D10AD
:1003E0007F017E00E4FBEBC39510E50F6480F87499
:0E03F0008098500AAC0DAD0E1202840B80E80E
:0103FE0022DC
:040440008A0A8B0B8E
:1004440012045DAA0CEAD39400400D1203CCAC0A4A
:08045400AD0B1204221A80ED29
:01045C00227D
:1003210012045DC3EA64809480400B7F2B12043673
:100331008A168B17800E7F2D120436C3E49BF517A6
:10034100E49AF516AA15EAD39400400D1203CCAC39
:0903510016AD171204221A80ED0A
:01035A002280
:04035B008A1F8B204A
:10035F0012045DAA21EAD3940040297F101203CE24
:10036F00AC1FAD20CFCDCFCECCCE120296EF540F17
:10037F00FEC3940AEE5004243080022437FF120487
:04038F00361A80D1C9
:010393002247
:040394008A248B2507
:1003980012045DAA26EAD394004028EA24FFFDE46B
:1003A80034FFFC7F027E001203D8AC24AD25CFCDEC
:1003B800CFCECCCE120296EF54012430FF12043671
:0303C8001A80D2C6
:0103CB00220F
:10000300E4F5087590FFC2932097137F14FE120442
:10001300733097FD7F147E001204737508012096D8
:10002300147F147E001204733096FD7F147E001239
:1000330004737508052095147F147E001204733031
:1000430095FD7F147E001204737508092094147FB4
:10005300147E001204733094FD7F147E0012047327
:1000630075080D7590FFC2922097147F147E0012BD
:1000730004733097FD7F147E001204737508022009
:1000830096147F147E001204733096FD7F147E0055
:100093001204737508062095147F147E00120473EE
:1000A3003095FD7F147E0012047375080A209414A2
:1000B3007F147E001204733094FD7F147E001204BB
:1000C3007375080E7590FFC2912097147F147E00FC
:1000D3001204733097FD7F147E00120473750803B6
:1000E3002096147F147E001204733096FD7F147ED5
:1000F300001204737508072095147F147E00120400
:10010300733095FD7F147E0012047375080B2094E1
:10011300147F147E001204733094FD7F147E00124A
:10012300047375080F7590FFC2902097147F147E97
:10013300001204733097FD7F147E00120473750858
:10014300042096147F147E001204733096FD7F14EE
:100153007E001204737508082095147F147E001224
:1001630004733095FD7F147E0012047375080C2010
:1001730094147F147E001204733094FD7F147E0068
:08018300120473750810AF08A7
:01018B002251
:030000000204BC3B
:0C04BC00787FE4F6D8FD75812602018CE3
:10025700BB010CE58229F582E5833AF583E022505C
:1002670006E92582F8E622BBFE06E92582F8E222A6
:0D027700E58229F582E5833AF583E49322C0
:10028400EF8DF0A4A8F0CF8CF0A428CE8DF0A42E8E
:02029400FE2248
:10029600BC000BBE0029EF8DF084FFADF022E4CC4C
:1002A600F875F008EF2FFFEE33FEEC33FCEE9DEC15
:1002B600984005FCEE9DFE0FD5F0E9E4CEFD22ED5B
:1002C600F8F5F0EE8420D21CFEADF075F008EF2FA5
:1002D600FFED33FD4007985006D5F0F222C398FD96
:0502E6000FD5F0EA2233
:1002EB00C2D5EC30E709B2D5E4C39DFDE49CFCEE2E
:1002FB0030E715B2D5E4C39FFFE49EFE120296C30E
:10030B00E49DFDE49CFC800312029630D507C3E408
:06031B009FFFE49EFE229C
:00000001FF
